:100000000C94C7000C94790F0C94AA0F0C94DB0F7E
:100010000C940C100C943D100C946E100C949F10CA
:100020000C94D0100C94F1000C94F1000C94F1009D
:100030000C94BD030C94F1000C94F1000C94A302F9
:100040000C94F1000C94F1000C94F1000C94F1006C
:100050000C94F1000C94F1000C94F1000C947E02CD
:100060000C94F1000C94A0110C94F1000C94F1008C
:100070000C94F1000C94F1000C94F1000C94F1003C
:100080000C94F1000C94F1000C94F1000C94F1002C
:100090000C94E1110C94F1000C94F1000C94190EE5
:1000A0000C94F1000C94F1000C94F1000C94F1000C
:1000B0000C94F1000C94F1000C94F1000C94F100FC
:1000C0000C94F1000C94F1000C94F1000021242711
:1000D0002A2D3033002225282B2E313400202326D0
:1000E000292C2F3205050505030303030101010433
:1000F00004030606060606060606010405010501B8
:1001000003020202020202010202050504040304C2
:1001100004010304070707010208101020408004AF
:1001200008102040020204081020408001028020B4
:100130004004200101020408102001408040800199
:1001400002080408800410040201000008090000ED
:10015000000000000000000000000000000000009F
:10016000000000000000000000000000000000008F
:100170000000000000000000000000000000C504B6
:100180003905100615066007C207130E180E112454
:100190001FBECFEFD1E2DEBFCDBF18E0A0E0B2E0DE
:1001A000E6EDF3E300E00BBF02C007900D92A63C22
:1001B000B107D9F711E1A6ECB8E001C01D92A23950
:1001C000B107E1F711E0CEE8D1E004C02297FE01CB
:1001D0000E94E815CE37D107C9F70E9477020C9428
:1001E000E9190C940000AF92BF92CF92DF92EF9288
:1001F000FF920F931F9387E399E067E072E00E94FC
:100200005F068091C6089091C708892B99F500D0A8
:1002100000D000D0EDB7FEB731968091C108909123
:10022000C208ADB7BEB712969C938E9311978AE120
:1002300092E0938382838091C3089091C408958350
:1002400084830E9412172DB73EB72A5F3F4F0FB627
:10025000F8943EBF0FBE2DBF6091C1087091C208D7
:1002600088E79AE00E94D00781E090E09093C70869
:100270008093C60888E399E06DE044EF51E00E9466
:10028000810788E79AE061E00E94EB0788E399E044
:100290006FEF7AE044E552E00E946107882351F451
:1002A00088E399E06FEF7AE041E852E00E9461074D
:1002B000882339F081E090E09093C7088093C608C6
:1002C000ACC088E399E06FEF7AE042EB52E00E9425
:1002D0006107882309F4A1C086E399E068E00E94E1
:1002E0007B0520E030E040E05FE30E94671320E000
:1002F00030E048EC52E40E941F15AB01BC0128EC31
:10030000A22E28E0B22E88E399E0950102E010E0E9
:100310000E94760687E399E062EC72E00E945F0635
:1003200087E399E0B5010E945F0686E399E064E007
:100330000E947B0520E030E048EC52E40E941F154B
:1003400023E333E343E550E40E94D013AB01BC0147
:1003500094EDC92E98E0D92E88E399E096010E9489
:10036000760687E399E06FEC72E00E945F0687E310
:1003700099E0B6010E945F0686E399E060E40E947E
:100380007B05AB01BC0180EEE82E88E0F82E88E307
:1003900099E097010E94760687E399E06CED72E0A0
:1003A0000E945F0687E399E0B7010E945F06009113
:1003B000C1081091C2088DEE98E00E94C604ADB746
:1003C000BEB71C970FB6F894BEBF0FBEADBFEDB75A
:1003D000FEB7319612961C930E93119721EE32E0E0
:1003E00033832283B582A482D782C682F186E086D7
:1003F000828713860E9412172DB73EB7245F3F4FA6
:100400000FB6F8943EBF0FBE2DBF6091C10870912A
:10041000C20888E79AE00E94D00760EA7FE080E0A7
:1004200090E00E94E0021F910F91FF90EF90DF900B
:10043000CF90BF90AF900895EF92FF920F931F93CC
:1004400007E319E0C8010E946D060E94A904BC01DF
:10045000C8010E944F0608E71AE0C80161E00E9447
:10046000900DC8010E945C0CC80168E00E94930ACC
:10047000C80161E00E94C90A38E3E32E39E0F32E97
:10048000C7016CE040E00E946B07C7016DE040E0EF
:100490000E946B07C80162E00E94FF0AC80162E087
:1004A0004CE253E00E94B50CC80166E373E00E9481
:1004B000350BC7016DE041E00E946B07C80160E4A5
:1004C00073E040E95FE120ED37E00E94EF0986E349
:1004D00099E060E00E94620568E873E180E090E0E6
:1004E0000E94E0021F910F91FF90EF9008950E94EB
:1004F00028030E941C020E94F300FDCF1F920F925E
:100500000FB60F9211248F939F93AF93BF93809157
:10051000860D9091870DA091880DB091890D01965F
:10052000A11DB11D8093860D9093870DA093880D1A
:10053000B093890DBF91AF919F918F910F900FBE96
:100540000F901F9018951F920F920FB60F921124C3
:100550008F939F93AF93BF9380918A0D90918B0D52
:10056000A0918C0DB0918D0D0196A11DB11D8093B0
:100570008A0D90938B0DA0938C0DB0938D0DBF9130
:10058000AF919F918F910F900FBE0F901F90189574
:100590006091860D7091870D8091880D9091890DE5
:1005A00027E0660F771F881F991F2A95D1F72EE342
:1005B00030E040E050E00E949515CA01B90108956D
:1005C000AF92BF92CF92DF92EF92FF920F931F9361
:1005D0005B016C016091860D7091870D8091880D93
:1005E0009091890D47E0660F771F881F991F4A95E4
:1005F000D1F72EE330E040E050E00E9495157901FC
:100600008A016091860D7091870D8091880D90917F
:10061000890D37E0660F771F881F991F3A95D1F72C
:100620002EE330E040E050E00E9495152E193F097E
:10063000400B510B2A153B054C055D0510F31F912E
:100640000F91FF90EF90DF90CF90BF90AF90089503
:10065000789484B7877F84BF1092860D1092870D9F
:100660001092880D1092890D84B5826084BD84B586
:10067000816084BD85B5826085BD85B5816085BD9D
:10068000EEE6F0E0808181608083E1E8F0E0808147
:1006900082608083808181608083E0E8F0E08081F7
:1006A00081608083E1EBF0E0808184608083E1E918
:1006B000F0E0808184608083E0EBF0E08081816005
:1006C0008083E0E9F0E0808181608083E4E6F0E00F
:1006D00080818E7F8083ECE7F0E080818F7780835C
:1006E000808180648083EAE7F0E080818460808399
:1006F0008081826080838081806880831092C100C5
:100700001092C90008959091EC08982B9093EC08F2
:1007100080FF32C0809164008E7F8093640080915E
:100720007C008F7780937C0080917C008064809334
:100730007C0080917A00846080937A0080917A00B6
:10074000826080937A0080917A00806880937A003A
:10075000809164008F7780936400809164008B7F28
:1007600080936400809164008D7F80936400809109
:1007700065008E7F8093650008951F920F920FB6DB
:100780000F920BB60F9211242F933F934F935F93C9
:100790006F937F938F939F93AF93BF93EF93FF9349
:1007A000F89481E08093C508E0E6F0E080818068FD
:1007B000808380818F7B808383E060E00E941204CD
:1007C0007894FF91EF91BF91AF919F918F917F911D
:1007D0006F915F914F913F912F910F900BBE0F90B2
:1007E0000FBE0F901F901895282F30E0C901895E29
:1007F0009E4FFC0194912C513F4FF9018491882325
:1008000081F0E82FF0E0E453FF4FE491F0E066233D
:1008100029F4808190958923808308958081892B94
:1008200080830895482F50E0CA01865B9E4FFC01EB
:100830002491CA01895E9E4FFC0194914C515F4FF7
:10084000FA0134913323C1F1222331F1233021F411
:10085000809180008F7705C0243031F48091800032
:100860008F7D8093800018C0213019F484B58F7774
:1008700004C0223021F484B58F7D84BD0DC02630A4
:1008800021F48091B0008F7705C0273029F4809142
:10089000B0008F7D8093B000E32FF0E0EC52FF4F6B
:1008A000E491F0E0662329F4808190958923808388
:1008B00008958081892B80830895482F50E0CA01D4
:1008C000865B9E4FFC012491CA01895E9E4FFC010C
:1008D00094914C515F4FFA013491332319F420E085
:1008E00030E035C0222331F1233021F480918000A3
:1008F0008F7705C0243031F4809180008F7D809304
:10090000800018C0213019F484B58F7704C02230DC
:1009100021F484B58F7D84BD0DC0263021F48091F3
:10092000B0008F7705C0273029F48091B0008F7D0B
:100930008093B000E32FF0E0E452FF4FE491F0E049
:10094000808120E030E0892311F021E030E0C9010E
:100950000895DF93CF9300D0CDB7DEB720918E11ED
:1009600030918F11CE0101962115310519F482596C
:10097000914102C0821B930B9A83898389819A815A
:100980000F900F90CF91DF9108950895EF92FF920D
:100990000F931F9389E161E00E94F40389E161E014
:1009A0000E94120480E00E940111AA2797FDA095E1
:1009B000BA2FBC01CD010E946B147B018C0120E099
:1009C00030E040E054E40E94CC13882334F489E101
:1009D00060E00E94120410E046C0C801B70120E0A8
:1009E00030EC42E254E40E941B15181634F489E1FD
:1009F00060E00E94120414E636C0C801B70120E08E
:100A000030EC42E254E40E94CC131816BCF0C8014A
:100A1000B70120E030EC47E054E40E941B151816A3
:100A20006CF4C801B70125E535E545E55FE30E94B3
:100A30001F1520E030E04DED53E40CC0C801B701B4
:100A400020E030E040EA5EE30E941F1520E030E045
:100A500040E253E40E9467130E943D14162F89E17F
:100A600060E00E941204812F1F910F91FF90EF9080
:100A7000089508950F931F93CF93DF93EC01042FF4
:100A80006FA380E361E00E94F4031FA1113019F00D
:100A9000103199F40DC080E361E00E94120401302E
:100AA00019F482E08A8B09C0002339F41A8B05C03F
:100AB00080E360E00E9412041A8ADF91CF911F91B7
:100AC0000F910895662319F06130A1F40FC08AE1F7
:100AD00061E00E94120480910109882359F48FEE8D
:100AE00098E061E041E00E943A0508958AE160E003
:100AF0000E94120408956830F9F0693038F46230C9
:100B0000B9F06430D9F0613061F414C0603271F032
:100B1000613218F4603129F407C0603489F060381C
:100B2000C9F080E090E019C081E015C082E013C0F8
:100B300084E011C083E00FC086E00DC087E00BC0E9
:100B400087E00E945D04A0E0B0E0BC01CD010E94FE
:100B5000691414C085E00E940111BC0180E090E09E
:100B60000E94691423E333E343E550E40E941F1518
:100B700020E030EC4FE754E40E94D013089583E066
:100B800061E00E94F40382E060E00E94F40388E0E8
:100B900061E00E94F4038AE061E00E94F40389E0CE
:100BA00061E00E94F40387E060E00E94F40386E0C5
:100BB00061E00E94F40384E061E00E94F40385E0B8
:100BC00061E00E94F4038BE061E00E94F4038AE19B
:100BD00061E00E94F40383E060E00E94120488E078
:100BE00060E00E9412048AE060E00E94120489E042
:100BF00060E00E94120486E060E00E94120484E03B
:100C000060E00E94120485E060E00E9412048BE024
:100C100060E00E9412048AE160E00E9412040895DC
:100C200086E399E00E94BF05089510923709089560
:100C30000F931F938C018DE0F80160810E942212B6
:100C40008AE0F80160810E9422121F910F9108959D
:100C5000EF92FF920F931F93CF93DF93EC017A01F2
:100C60008B0177FF0CC08DE268810E9422121095E3
:100C70000095F094E094E11CF11C011D111DC801C8
:100C8000B7012AE030E040E050E008810E944912BC
:100C9000DF91CF911F910F91FF90EF9008950F93E7
:100CA0001F938C01AB01662757FD6095762F0E943C
:100CB0002806C8010E9418061F910F9108950F93EE
:100CC0001F938C01CB01F80160810E943312C8018F
:100CD0000E9418061F910F910895FC0160E076E9CB
:100CE00080E090E040810E94EB1208952F923F92A5
:100CF0004F925F926F927F928F929F92AF92BF922C
:100D0000CF92DF92EF92FF920F931F93DF93CF93D7
:100D1000CDB7DEB769970FB6F894DEBF0FBECDBF73
:100D20003A014B011901198F088FCB01BA0120E05C
:100D300030E040E050E00E94CC1387FD02C01F8AE3
:100D400006C097FA909497F8909421E02F8BC401F5
:100D5000B3010E9438145B016C01CE0101969E8B99
:100D60008D8B44245524C601B5012AE030E040E0D3
:100D700050E00E94B7157B018C01C601B5012AE045
:100D800030E040E050E00E94B715C901DA015C0193
:100D90006D01ED89FE89E192F192FE8BED8BC2012E
:100DA0000894411C511CA114B104C104D104D9F60A
:100DB0009C01FF89FF2319F440E050E005C08DE25B
:100DC000F101808341E050E0C901880F991FFE01C5
:100DD0003196E80FF91FD101A40FB51FBE01615074
:100DE00070408081805D8D933297E617F707C9F7D1
:100DF00029010894411C511C440E551E8101040D0B
:100E0000151D8EE2F8018083C401B3010E943814DD
:100E1000882777FD8095982F0E946B149B01AC0169
:100E2000C401B3010E946713380111E0812E912C97
:100E300020C020E030E040E251E40E941F155B0139
:100E40006C010E9438147B018C01B701882777FD63
:100E50008095982F0E946B149B01AC01C601B501CF
:100E60000E946713F0E3EF0EF301E0820894811C07
:100E7000911CF401E40DF51D0894611C711C288D72
:100E8000398D28153905ACF6E20DF31D10826996EF
:100E90000FB6F894DEBF0FBECDBFCF91DF911F918B
:100EA0000F91FF90EF90DF90CF90BF90AF909F9009
:100EB0008F907F906F905F904F903F902F9008950C
:100EC0000895CB01BA010E94F8169C0180E0232B03
:100ED00009F081E008950F931F93162F042F862F9A
:100EE00061E00E94F403013019F4812F61E004C035
:100EF000002321F4812F60E00E9412041F910F91C2
:100F00000895BF92CF92DF92EF92FF920F931F93BB
:100F10008C01B62E6A0141E00E946B07EE24FF248B
:100F2000C701B6010E94E002C8016B2D40E00E949B
:100F30006B07C701B6010E94E0021F910F91FF905D
:100F4000EF90DF90CF90BF900895CF93DF93EB01A8
:100F500012C0FA018081981769F4DE0107C081810F
:100F600031961196882311F481E009C090818C910B
:100F70009817A9F321969881992359F780E0DF917A
:100F8000CF91089581E080937A0A10927B0A88ECD1
:100F900090E09093FD0A8093FC0A1092FE0A089557
:100FA000EF92FF920F931F938C017B01CB01F8010D
:100FB00062810E94331284EA93E0F80163810E9407
:100FC0003312C701F80163810E9433121F910F9100
:100FD000FF90EF9008955F926F927F928F929F9211
:100FE000AF92BF92CF92DF92EF92FF920F931F9337
:100FF000DF93CF93CDB7DEB7C050D2400FB6F89491
:10100000DEBF0FBECDBF7C01562ECE0101966EEA2B
:1010100073E00E94F11697E8692E712C6E0C7F1C0C
:1010200075C01192019622E080309207D1F70E949C
:10103000C8025B016C015520A9F4F70182810E946E
:101040002D11892BD1F300E010E024C00E94C802CA
:101050006A197B098C099D09615D77408040904049
:1010600008F059C0F70182810E942D11892B71F37C
:10107000EACFF70182810E945111F4018083882315
:1010800049F0F2E000301F0728F40F5F1F4F08946B
:10109000811C911CF70182810E942D11892B49F737
:1010A0000115110519F400E010E008C00E0D1F1D18
:1010B00009571F4FF801108201E010E088EA93E021
:1010C000F70163810E943312C301F70163810E941B
:1010D00033128CEA93E0F70163810E943312011509
:1010E000110519F08FEA93E002C084EB93E0F70159
:1010F00063810E94331262E370E080E090E00E941E
:10110000E002012B19F021E030E007C04301F301B8
:1011100080E090E086CF20E030E0C901C050DE4F93
:101120000FB6F894DEBF0FBECDBFCF91DF911F91F8
:101130000F91FF90EF90DF90CF90BF90AF909F9076
:101140008F907F906F905F900895FF920F931F9301
:10115000CF93DF938C01F62EFC0182810E942D112A
:10116000892B19F4C0E0D0E033C0FF2019F4C0E0AF
:10117000D0E028C0CF2DD0E02296F80182810E94D5
:101180002D11C817D907CCF7F2CFF2E0C030DF0736
:1011900098F4F80182810E945111F801EC0FFD1FB3
:1011A000E957FF4F8083882339F021968BEB93E03A
:1011B000F80163810E9433126AE070E080E090E001
:1011C0000E94E002F80182810E942D11892BE9F62C
:1011D000C00FD11FC957DF4F1882E801C957DF4F31
:1011E000C801BE014DEB53E00E94A507882339F0EA
:1011F0008CEA93E0F80163810E94331219C0C801A0
:10120000BE0142EC53E00E94A507882399F4C8016F
:10121000BE0147EC53E00E94A507882359F4C8019A
:10122000BE0140ED53E00E94A50790E0882319F429
:1012300091E001C090E0892FDF91CF911F910F9134
:10124000FF9008950F931F93CF93DF938C01FC01C0
:1012500082810E948C11F80182810E942D11892BBC
:10126000D1F788ED93E0F80162810E943312F80112
:1012700082810E942D11892BD1F3F80182810E9475
:101280002D114497D4F3C0E0D0E016C0F2E0C03096
:10129000DF0760F4F80182810E945111F801EC0F20
:1012A000FD1FE957FF4F8083811121966AE070E0AE
:1012B00080E090E00E94E002F80182810E942D11FE
:1012C000892B21F7C00FD11FC957DF4F1882C801E2
:1012D00009571F4FB80140EE53E00E94A507811146
:1012E00081E0DF91CF911F910F9108951F93CF93CC
:1012F000DF93EC018A810E948C118A810E942D115A
:10130000892BD9F78DE194E06B810E9433128DE136
:1013100094E06A810E9433128A810E942D11892BE8
:10132000D9F38A810E942D114497DCF310E08A8161
:101330000E945111FE01E10FF11DE957FF4F80831B
:1013400081111F5F6AE070E080E090E00E94E0029F
:10135000143168F3FE01E10FF11DE957FF4F1082D0
:10136000CE01C957DF4FBE0143E254E00E94A507FA
:10137000811181E0DF91CF911F9108950F931F9309
:10138000CF93DF93EC018B018A810E948C118A81BB
:101390000E942D11892BD9F78BE294E06B810E947A
:1013A0003312C8016B810E943312C8016A810E9406
:1013B00033128A810E942D11892BD9F360E001C07C
:1013C0006F5FF801E60FF11D80818823C9F7CE0118
:1013D0000E94A508DF91CF911F910F9108959F92D0
:1013E000AF92BF92CF92DF92EF92FF920F931F9333
:1013F000CF93DF93EC016A0159018C010C5F1F4F01
:101400008DB79EB708970FB6F8949EBF0FBE8DBFDD
:10141000EDB7FEB73196ADB7BEB712961C930E93DB
:1014200011978FE594E093838283758364836DE0E5
:10143000E62EF12CF782E6820E9412178DB79EB736
:1014400008960FB6F8949EBF0FBE8DBFCE01B801AF
:101450000E94BE09982EADB7BEB718970FB6F89484
:10146000BEBF0FBEADBFEDB7FEB7319612961C934F
:101470000E9311978CE694E093838283D582C48285
:10148000F782E6820E9412178DB79EB708960FB6B4
:10149000F8949EBF0FBE8DBFCE01B8010E94BE0959
:1014A000C82EADB7BEB718970FB6F894BEBF0FBE23
:1014B000ADBFEDB7FEB7319612961C930E93119700
:1014C0008BE494E093838283B582A482F782E682E0
:1014D0000E9412178DB79EB708960FB6F8949EBF5C
:1014E0000FBE8DBFCE01B8010E94BE0991E09916D2
:1014F00069F4C91659F4813049F4CE010E942209D9
:10150000882321F0CE010E94760901C080E0DF919E
:10151000CF911F910F91FF90EF90DF90CF90BF90F0
:10152000AF909F900895EF92FF920F931F937C01CD
:101530008C010C5F1F4F8DB79EB708970FB6F894BC
:101540009EBF0FBE8DBFEDB7FEB73196ADB7BEB72C
:1015500012961C930E93119781EE94E093838283ED
:10156000648315828DE090E0978386830E94121732
:101570008DB79EB708960FB6F8949EBF0FBE8DBF6D
:10158000C701B8010E94BE091F910F91FF90EF9013
:101590000895EF92FF920F931F937C018C010C5FD3
:1015A0001F4F8DB79EB708970FB6F8949EBF0FBE1A
:1015B0008DBFEDB7FEB73196ADB7BEB712961C938F
:1015C0000E9311978FE295E0938382836483158253
:1015D0008DE090E0978386830E9412178DB79EB7A7
:1015E00008960FB6F8949EBF0FBE8DBFC701B80115
:1015F0000E94BE091F910F91FF90EF900895EF9206
:10160000FF920F931F937C018C010C5F1F4F8DB7CE
:101610009EB708970FB6F8949EBF0FBE8DBFEDB76B
:10162000FEB73196ADB7BEB712961C930E931197C5
:101630008CEF95E093838283648315828DE090E044
:10164000978386830E9412178DB79EB708960FB6B0
:10165000F8949EBF0FBE8DBFC701B8010E94BE099E
:101660001F910F91FF90EF9008950F931F93CF93C9
:10167000DF93EC018C010C5F1F4F8DB79EB708976D
:101680000FB6F8949EBF0FBE8DBFEDB7FEB7319673
:10169000ADB7BEB712961C930E9311978AE796E0EA
:1016A00093838283758364838DE090E09783868340
:1016B0000E9412178DB79EB708960FB6F8949EBF7A
:1016C0000FBE8DBF8A810E948C118B810E948C116C
:1016D000CE01B8010E94BE09882319F1CE010E94F3
:1016E00022098823F9F4CE010E9422098823D1F42B
:1016F000CE010E9422098823A9F4CE010E9422096A
:10170000882381F4CE010E942209882359F4CE0156
:101710000E94220990E0882309F491E081E0982753
:1017200002C002C091E0892FDF91CF911F910F91EC
:101730000895FF920F931F93CF93DF938C01FC01C9
:1017400082810E948C11F80182810E942D11892BC7
:10175000D1F784E896E0F80162810E943312F80123
:1017600082810E942D110397D4F3FF2411C0F80148
:1017700082810E945111C00FD11FC957DF4F88834A
:101780008111F3946AE070E080E090E00E94E00252
:10179000F80182810E942D11CF2DD0E0892B39F7DD
:1017A000C00FD11FC957DF4F1882B80169577F4F4B
:1017B000C80148E856E00E94A507882339F08DE863
:1017C00096E0F80163810E94331281E0DF91CF91AE
:1017D0001F910F91FF900895FF920F931F93CF9346
:1017E000DF938C01EC01249600D000D000D0EDB73F
:1017F000FEB73196ADB7BEB71296DC93CE93119774
:1018000086E196E0938382838DE090E095838483E4
:101810000E941217EDB7FEB736960FB6F894FEBFCA
:101820000FBEEDBFD80112968C910E948C11F80169
:1018300082810E942D11892BD1F7CE01D8011296F9
:101840006C910E943312F80182810E942D11892B24
:10185000D1F3D80112968C910E942D110897CCF3E8
:10186000FF2411C0F80182810E945111C00FD11FC5
:10187000C957DF4F88838111F3946AE070E080E0FC
:1018800090E00E94E002D80112968C910E942D11E6
:10189000CF2DD0E0892B31F7C00FD11FC957DF4FB3
:1018A0001882C8010E94990B8130D9F7DF91CF913E
:1018B0001F910F91FF900895CF92DF92EF92FF92C8
:1018C0000F931F938C0124E0E22EF12CE80EF91EF9
:1018D00000D000D000D0EDB7FEB73196ADB7BEB79F
:1018E0001296FC92EE92119780E097E093838283A8
:1018F0009DE0C92ED12CD582C4820E9412178DB7CB
:101900009EB706960FB6F8949EBF0FBE8DBFC80156
:10191000B7010E94BE09C8010E94EC0B00D000D0A4
:1019200000D0EDB7FEB73196ADB7BEB71296FC92B8
:10193000EE92119780E197E093838283D582C482EF
:101940000E9412178DB79EB706960FB6F8949EBFE9
:101950000FBE8DBFC801B7010E94BE091F910F9134
:10196000FF90EF90DF90CF9008954F925F926F922B
:101970007F928F929F92AF92BF92CF92DF92EF921F
:10198000FF920F931F93DF93CF9300D0CDB7DEB7B5
:101990007C01162F042FB52E8BE190E00E94EC15F0
:1019A0006C01113009F076C0802F9B2D9C015901EC
:1019B00086012E010894411C511C3BE6632E38E041
:1019C000732E2AE1822E912C8C0C9D1C00D000D00D
:1019D00000D0EDB7FEB73196ADB7BEB712965C92A8
:1019E0004E92119773826282D5018D915D01992784
:1019F00087FD9095958384830E941217EDB7FEB7FB
:101A000036960FB6F894FEBF0FBEEDBFD701139602
:101A10008C910E948C118981F70163810E941C11B5
:101A20008A81D70113966C910E941C118AE0F701FC
:101A300063810E941C118981D8018C938A8111963F
:101A40008C930E5F1F4F0815190509F0BFCFF601E3
:101A5000128E2DB73EB7285030400FB6F8943EBFD7
:101A60000FBE2DBFEDB7FEB7319684E090E0E80ED3
:101A7000F91EADB7BEB71296FC92EE9211972CEFFD
:101A80003FEFE20EF31E8EE698E093838283D582C9
:101A9000C4821DC0ADB7BEB718970FB6F894BEBFCD
:101AA0000FBEADBFEDB7FEB7319624E030E0E20ED9
:101AB000F31E1296FC92EE9211972CEF3FEFE20E7E
:101AC000F31E8BE798E0938382830483B5828DE0D5
:101AD00090E0978386830E9412178DB79EB7089671
:101AE0000FB6F8949EBF0FBE8DBFC701A4E0B0E053
:101AF000EA0EFB1EB7010E94BE090F900F90CF9116
:101B0000DF911F910F91FF90EF90DF90CF90BF90EA
:101B1000AF909F908F907F906F905F904F900895BF
:101B20000F931F93CF93DF93EC01662351F41A8236
:101B300081E08B8386E161E00E94F40386E161E04D
:101B400031C0613089F58FE20E94F40384E261E0E4
:101B50000E94F40385E261E00E94F4038FE261E0F9
:101B60000E94120484E261E00E94120485E261E0B6
:101B70000E94120486E061E00E94F40386E061E0C6
:101B80000E9412048AE261E00E94F4038AE261E0AA
:101B90000E94120460ED77E080E090E00E94E00295
:101BA0008AE260E00E94120460E875E280E090E062
:101BB0004A810E94EB128A810E948C11CE0160E062
:101BC0000E94A508CE010E94990B8130D9F78E01A1
:101BD0000C5F1F4F00D000D000D0EDB7FEB731969C
:101BE000ADB7BEB712961C930E93119780E197E0A4
:101BF000938382838DE090E0958384830E94121703
:101C00008DB79EB706960FB6F8949EBF0FBE8DBFD8
:101C1000CE01B8010E94BE0919821882DF91CF91CE
:101C20001F910F9108951092FF0C1092010D0895CD
:101C300008951F920F920FB60F920BB60F921124B8
:101C40002F933F934F935F936F937F938F939F93C4
:101C5000AF93BF93EF93FF938091B90090E0887F9B
:101C600090708036910509F4CAC081369105CCF593
:101C70008832910509F47BC089329105B4F4803132
:101C8000910509F46FC0813191053CF4009709F486
:101C900014C1089709F01AC165C08831910509F48B
:101CA00066C0809709F012C17DC08034910509F4A7
:101CB0008DC08134910544F48033910509F472C0DC
:101CC000C89709F003C1F5C08035910509F472C0C9
:101CD0008835910509F47FC08834910509F0F6C074
:101CE00086C08839910509F4E0C089399105ECF482
:101CF0008837910509F483C0893791054CF48836FB
:101D0000910509F47CC08037910509F0DFC077C0E8
:101D10008838910509F4C9C08039910509F475C066
:101D20008038910509F0D2C070C0803B910509F45C
:101D300093C0813B91054CF4803A910509F477C03A
:101D4000883A910509F0C2C087C0803C910509F42A
:101D5000B0C0883C910509F4ACC0883B910509F0FE
:101D6000B5C08FC08091040D8093BB009CC0909142
:101D7000290D80912A0D981768F49091290DE92F6B
:101D8000F0E0E75FF24F80818093BB009F5F90930C
:101D9000290D89C085ED8093BC008091BC0084FD35
:101DA000FCCF92C085ED8093BC008091BC0084FD87
:101DB000FCCF8AC08091290D9091BB00E82FF0E004
:101DC000E75FF24F90838F5F8093290D9091290DEB
:101DD00080912A0D66C08091290D9091BB00E82F5B
:101DE000F0E0E75FF24F90838F5F8093290D85EDE0
:101DF0008093BC008091BC0084FDFCCF65C083E073
:101E00008093030D10926D0D4EC080916D0D803248
:101E100008F04BC080916D0D9091BB00E82FF0E071
:101E2000E35BF24F90838F5F80936D0D3CC0809198
:101E30006D0D803230F4E0916D0DF0E0E35BF24F18
:101E4000108260916D0DE091070DF091080D8DE409
:101E50009DE070E009952DC084E08093030D109201
:101E60004B0D10924C0DE091050DF091060D09956A
:101E700080914C0D882329F481E080934C0D1092C1
:101E80002B0D90914B0DE92FF0E0E55DF24F808135
:101E90008093BB009F5F90934B0D90914B0D809171
:101EA0004C0D981710F485EC01C085E88093BC00B8
:101EB0000DC085EC8093BC0007C085ED8093BC000D
:101EC0008091BC0084FDFCCF1092030DFF91EF9137
:101ED000BF91AF919F918F917F916F915F914F9142
:101EE0003F912F910F900BBE0F900FBE0F901F9040
:101EF00018951F920F920FB60F920BB60F921124E6
:101F00002F933F934F935F936F937F938F939F9301
:101F1000AF93BF93EF93FF9380916E0D90916F0DF0
:101F2000892B29F0E0916E0DF0916F0D0995FF91CD
:101F3000EF91BF91AF919F918F917F916F915F9141
:101F40004F913F912F910F900BBE0F900FBE0F90AE
:101F50001F9018951F920F920FB60F920BB60F920B
:101F600011242F933F934F935F936F937F938F939E
:101F70009F93AF93BF93EF93FF938091700D9091D8
:101F8000710D892B29F0E091700DF091710D09957B
:101F9000FF91EF91BF91AF919F918F917F916F9141
:101FA0005F914F913F912F910F900BBE0F900FBEFD
:101FB0000F901F9018951F920F920FB60F920BB6AD
:101FC0000F9211242F933F934F935F936F937F93BF
:101FD0008F939F93AF93BF93EF93FF938091720D75
:101FE0009091730D892B29F0E091720DF091730D92
:101FF0000995FF91EF91BF91AF919F918F917F9143
:102000006F915F914F913F912F910F900BBE0F9069
:102010000FBE0F901F9018951F920F920FB60F9240
:102020000BB60F9211242F933F934F935F936F93AF
:102030007F938F939F93AF93BF93EF93FF93809181
:10204000740D9091750D892B29F0E091740DF0912C
:10205000750D0995FF91EF91BF91AF919F918F9170
:102060007F916F915F914F913F912F910F900BBE98
:102070000F900FBE0F901F9018951F920F920FB6E2
:102080000F920BB60F9211242F933F934F935F93B0
:102090006F937F938F939F93AF93BF93EF93FF9330
:1020A0008091760D9091770D892B29F0E091760D36
:1020B000F091770D0995FF91EF91BF91AF919F91AD
:1020C0008F917F916F915F914F913F912F910F90E1
:1020D0000BBE0F900FBE0F901F9018951F920F927E
:1020E0000FB60F920BB60F9211242F933F934F937D
:1020F0005F936F937F938F939F93AF93BF93EF9370
:10210000FF938091780D9091790D892B29F0E091C2
:10211000780DF091790D0995FF91EF91BF91AF91F5
:102120009F918F917F916F915F914F913F912F91EF
:102130000F900BBE0F900FBE0F901F9018951F921F
:102140000F920FB60F920BB60F9211242F933F935D
:102150004F935F936F937F938F939F93AF93BF93AF
:10216000EF93FF9380917A0D90917B0D892B29F04D
:10217000E0917A0DF0917B0D0995FF91EF91BF9160
:10218000AF919F918F917F916F915F914F913F910F
:102190002F910F900BBE0F900FBE0F901F901895B0
:1021A0001F920F920FB60F920BB60F9211242F931E
:1021B0003F934F935F936F937F938F939F93AF93CF
:1021C000BF93EF93FF9380917C0D90917D0D892BB0
:1021D00029F0E0917C0DF0917D0D0995FF91EF9133
:1021E000BF91AF919F918F917F916F915F914F912F
:1021F0003F912F910F900BBE0F900FBE0F901F902D
:10220000189590917C008F70907F892B80937C0033
:1022100080917A00806480937A0080917A0086FDB4
:10222000FCCF2091780040917900942F80E030E03D
:10223000282B392BC9010895982F662339F48091F2
:10224000C00085FFFCCF9093C60008958091C80020
:1022500085FFFCCF9093CE000895882389F4809168
:102260007E0D90917F0D80509E4F2091800D30917A
:10227000810D821B930B60E072E00E94821508952D
:102280008091820D9091830D80509E4F2091840DFE
:102290003091850D821B930B60E072E00E948215E5
:1022A00008958823D1F44091800D5091810D809143
:1022B0007E0D90917F0D8417950751F1FA01E25739
:1022C000F04F2081CA01019660E072E00E94821501
:1022D0009093810D8093800D19C04091840D509191
:1022E000850D8091820D9091830D8417950781F063
:1022F000FA01E257F24F2081CA01019660E072E0D4
:102300000E9482159093850D8093840D30E002C069
:102310002FEF3FEFC9010895882349F41092810DF2
:102320001092800D10927F0D10927E0D08951092E4
:10233000850D1092840D1092830D1092820D0895D8
:102340001F920F920FB60F920BB60F9211242F937C
:102350003F934F935F936F937F938F939F93AF932D
:10236000BF93EF93FF934091C600E0917E0DF091F3
:102370007F0DCF01019660E072E00E9482159C0102
:102380008091800D9091810D2817390739F0E2571F
:10239000F04F408330937F0D20937E0DFF91EF919E
:1023A000BF91AF919F918F917F916F915F914F916D
:1023B0003F912F910F900BBE0F900FBE0F901F906B
:1023C00018951F920F920FB60F920BB60F92112411
:1023D0002F933F934F935F936F937F938F939F932D
:1023E000AF93BF93EF93FF934091CE00E091820DA6
:1023F000F091830DCF01019660E072E00E9482159A
:102400009C018091840D9091850D2817390739F032
:10241000E257F24F40833093830D2093820DFF915A
:10242000EF91BF91AF919F918F917F916F915F914C
:102430004F913F912F910F900BBE0F900FBE0F90B9
:102440001F901895982F662339F48091C00085FF5E
:10245000FCCF9093C60008958091C80085FFFCCF03
:102460009093CE000895FC0110C03196662339F494
:102470008091C00085FFFCCF9093C60006C080917C
:10248000C80085FFFCCF9093CE009081992369F717
:1024900008952F923F924F925F926F927F928F9208
:1024A0009F92AF92BF92CF92DF92EF92FF920F93E3
:1024B0001F93DF93CF93CDB7DEB7A1970FB6F894F4
:1024C000DEBF0FBECDBF6B017C0129013A0109A31C
:1024D000611571058105910591F4002341F4809106
:1024E000C00085FFFCCF80E38093C6005BC0809175
:1024F000C80085FFFCCF80E38093CE0053C08824C2
:10250000992454011E010894211C311C8101080DDD
:10251000191DC701B601A30192010E949515F8018A
:1025200060830894811C911CA11CB11CC701B601D9
:10253000A30192010E949515C901DA016C017D0188
:10254000C114D104E104F10409F79101280D391DEA
:10255000BE016F5F7F4FD501C4010197A109B10989
:10256000AC01481959091BC0FA01E20FF31FE081C1
:10257000EA3010F4E05D01C0E95CF9A1FF2339F411
:102580008091C00085FFFCCFE093C60006C080911B
:10259000C80085FFFCCFE093CE0021503040621789
:1025A000730711F7A1960FB6F894DEBF0FBECDBF2B
:1025B000CF91DF911F910F91FF90EF90DF90CF901F
:1025C000BF90AF909F908F907F906F905F904F9053
:1025D0003F902F900895EF92FF920F931F937B01EE
:1025E0008C014423C1F588E00E948303C801B70130
:1025F00022E030E040E050E00E94B715205E3E450A
:10260000484F5F4FCA01B901A80197010E94B71551
:10261000C901DA010197A109B109292F3A2F4B2FDE
:10262000552747FD5A950196A11DB11D2093C50060
:1026300081508093C4008091C10080618093C1006B
:102640008091C10088608093C1008091C100806842
:102650008093C10037C080E10E948303C801B701A5
:1026600022E030E040E050E00E94B715205E3E4599
:10267000484F5F4FCA01B901A80197010E94B715E1
:10268000C901DA010197A109B109292F3A2F4B2F6E
:10269000552747FD5A950196A11DB11D2093CD00E8
:1026A00081508093CC008091C90080618093C900E3
:1026B0008091C90088608093C9008091C9008068BA
:1026C0008093C9001F910F91FF90EF90089550588B
:1026D000BB27AA270ED075C166D130F06BD120F090
:1026E00031F49F3F11F41EF45BC10EF4E095E7FB5B
:1026F00051C1E92F77D180F3BA17620773078407B6
:10270000950718F071F49EF58FC10EF4E0950B2E2D
:10271000BA2FA02D0B01B90190010C01CA01A00133
:102720001124FF27591B99F0593F50F4503E68F18E
:102730001A16F040A22F232F342F4427585FF3CFCF
:10274000469537952795A795F0405395C9F77EF4A0
:102750001F16BA0B620B730B840BBAF09150A1F0E9
:10276000FF0FBB1F661F771F881FC2F70EC0BA0F6F
:10277000621F731F841F48F4879577956795B795F7
:10278000F7959E3F08F0B3CF9395880F08F09927EF
:10279000EE0F979587950895D9D008F481E00895B4
:1027A0000CD00FC107D140F0FED030F021F45F3FD4
:1027B00019F0F0C0511139C1F3C014D198F3992325
:1027C000C9F35523B1F3951B550BBB27AA276217F5
:1027D0007307840738F09F5F5F4F220F331F441F3A
:1027E000AA1FA9F333D00E2E3AF0E0E830D0915072
:1027F0005040E695001CCAF729D0FE2F27D0660F5F
:10280000771F881FBB1F261737074807AB07B0E89D
:1028100009F0BB0B802DBF01FF2793585F4F2AF0B3
:102820009E3F510568F0B6C000C15F3FECF3983E93
:10283000DCF3869577956795B795F7959F5FC9F710
:10284000880F911D9695879597F90895E1E0660F99
:10285000771F881FBB1F621773078407BA0720F012
:10286000621B730B840BBA0BEE1F88F7E09508957B
:1028700004D06894B111D9C00895BCD088F09F5796
:1028800090F0B92F9927B751A0F0D1F0660F771FBC
:10289000881F991F1AF0BA95C9F712C0B13081F09C
:1028A000C3D0B1E00895C0C0672F782F8827B85FE4
:1028B00039F0B93FCCF3869577956795B395D9F7FD
:1028C0003EF490958095709561957F4F8F4F9F4F07
:1028D0000895E89409C097FB3EF490958095709513
:1028E00061957F4F8F4F9F4F9923A9F0F92F96E95C
:1028F000BB279395F695879577956795B795F111D1
:10290000F8CFFAF4BB0F11F460FF1BC06F5F7F4F6D
:102910008F4F9F4F16C0882311F096E911C077237F
:1029200021F09EE8872F762F05C0662371F096E888
:10293000862F70E060E02AF09A95660F771F881F57
:10294000DAF7880F9695879597F90895990F0008FB
:10295000550FAA0BE0E8FEEF16161706E807F90771
:10296000C0F012161306E407F50798F0621B730B0C
:10297000840B950B39F40A2661F0232B242B252B8D
:1029800021F408950A2609F4A140A6958FEF811D30
:10299000811D089597F99F6780E870E060E00895D1
:1029A0009FEF80EC089500240A9416161706180667
:1029B0000906089500240A94121613061406050643
:1029C0000895092E0394000C11F4882352F0BB0FD4
:1029D00040F4BF2B11F460FF04C06F5F7F4F8F4F37
:1029E0009F4F089557FD9058440F551F59F05F3F72
:1029F00071F04795880F97FB991F61F09F3F79F021
:102A000087950895121613061406551FF2CF4695A2
:102A1000F1DF08C0161617061806991FF1CF869524
:102A20007105610508940895E894BB276627772708
:102A3000CB0197F908958ADF08F48FEF08950BD042
:102A4000C0CFB1DF28F0B6DF18F0952309F0A2CF90
:102A5000A7CF1124EACFC6DFA0F3959FD1F3950F3E
:102A600050E0551F629FF001729FBB27F00DB11D12
:102A7000639FAA27F00DB11DAA1F649F6627B00DA2
:102A8000A11D661F829F2227B00DA11D621F739F8B
:102A9000B00DA11D621F839FA00D611D221F749F99
:102AA0003327A00D611D231F849F600D211D822FE0
:102AB000762F6A2F11249F5750408AF0E1F0882327
:102AC0004AF0EE0FFF1FBB1F661F771F881F915034
:102AD0005040A9F79E3F510570F05CCFA6CF5F3FF5
:102AE000ECF3983EDCF3869577956795B795F79567
:102AF000E7959F5FC1F7FE2B880F911D96958795EF
:102B000097F9089597FB092E07260AD077FD04D080
:102B100049D006D000201AF4709561957F4F089532
:102B2000F6F7909581959F4F0895A1E21A2EAA1B62
:102B3000BB1BFD010DC0AA1FBB1FEE1FFF1FA2176D
:102B4000B307E407F50720F0A21BB30BE40BF50B6A
:102B5000661F771F881F991F1A9469F760957095F3
:102B6000809590959B01AC01BD01CF01089597FB25
:102B7000092E05260ED057FD04D0D7DF0AD0001C41
:102B800038F450954095309521953F4F4F4F5F4F0A
:102B90000895F6F790958095709561957F4F8F4FCA
:102BA0009F4F0895AA1BBB1B51E107C0AA1FBB1F63
:102BB000A617B70710F0A61BB70B881F991F5A95C9
:102BC000A9F780959095BC01CD010895EE0FFF1FE8
:102BD0000590F491E02D0994CF93DF93BC018230EE
:102BE000910510F462E070E0A0919011B091911104
:102BF000ED01E0E0F0E040E050E021C08881998103
:102C00008617970769F48A819B81309719F093831F
:102C1000828304C09093911180939011FE0134C07F
:102C20006817790738F44115510519F0841795078D
:102C300008F4AC01FE018A819B819C01E901209787
:102C4000E9F641155105A9F1CA01861B970B0497B6
:102C500008F4BA01E0E0F0E02AC08D919C91119750
:102C600084179507F9F46417750781F412968D910E
:102C70009C911397309719F09383828304C09093AB
:102C8000911180939011FD0132964FC0CA01861BAD
:102C9000970BFD01E80FF91F6193719302978D93D4
:102CA0009C9343C0FD01828193819C01D9011097BF
:102CB000A1F680918E1190918F11892B41F4809112
:102CC000BD089091BE0890938F1180938E11409112
:102CD000BF085091C0084115510541F44DB75EB78A
:102CE0008091BB089091BC08481B590B20918E1114
:102CF00030918F1124173507B0F4CA01821B930B52
:102D00008617970780F0AB014E5F5F4F84179507DA
:102D100050F0420F531F50938F1140938E11F901C1
:102D20006193719302C0E0E0F0E0CF01DF91CF91B9
:102D30000895CF93DF93009709F450C0EC012297D8
:102D40001B821A82A0919011B0919111109709F1F4
:102D500040E050E0AC17BD0708F1BB83AA83FE0139
:102D600021913191E20FF31FAE17BF0779F48D91D6
:102D70009C911197280F391F2E5F3F4F398328836D
:102D800012968D919C9113979B838A8341155105CF
:102D900071F4D0939111C093901120C012968D912F
:102DA0009C911397AD01009711F0DC01D3CFFA018C
:102DB000D383C28321913191E20FF31FCE17DF0736
:102DC00069F488819981280F391F2E5F3F4FFA01DE
:102DD000318320838A819B8193838283DF91CF918A
:102DE0000895FB01DC0101900D920020E1F70895A8
:102DF000FB0151915523A9F0BF01DC014D9145170D
:102E00004111E1F759F4CD010190002049F04D91B5
:102E100040154111C9F3FB014111EFCF81E090E072
:102E2000019708950F931F93DF93CF93CDB7DEB72C
:102E30002E970FB6F894DEBF0FBECDBF0D891E8949
:102E400086E08C831A8309838FEF9FE79E838D83AF
:102E50009E01275E3F4FCE0101966F89788DA901B3
:102E60000E9443172F813885020F131FF80110822B
:102E70002E960FB6F894DEBF0FBECDBFCF91DF9177
:102E80001F910F9108952F923F924F925F926F92F0
:102E90007F928F929F92AF92BF92CF92DF92EF92EA
:102EA000FF920F931F93DF93CF93CDB7DEB72B978E
:102EB0000FB6F894DEBF0FBECDBF3C012B015A0107
:102EC000FC0117821682838181FD03C06FEF7FEFC3
:102ED000C6C19AE0892E1E010894211C311CF30101
:102EE0002381F20123FD859123FF81912F01882306
:102EF00009F4B2C1853239F423FD859123FF819114
:102F00002F01853229F490E0B3010E945F19E7CFC9
:102F1000982FFF24EE249924FFE1FF15D0F09B3277
:102F200069F09C3228F4903259F0933291F40EC03B
:102F30009D3249F0903369F441E024C052E0F52A13
:102F400084E0F82A28C098E0F92A25C0E0E1FE2AAA
:102F500022C0F7FC29C0892F80538A3070F4F6FE16
:102F600005C0989C902C1124980E15C0E89CE02C6C
:102F70001124E80EF0E2FF2A0EC09E3229F4F6FC7E
:102F80006BC140E4F42A07C09C3619F450E8F52AD6
:102F900002C0983649F4F20123FD959123FF9191E7
:102FA0002F01992309F0B8CF892F8554833018F069
:102FB0008052833038F444E050E0A40EB51E5FE345
:102FC00059830FC0933631F0933779F0933509F078
:102FD00056C020C0F5018081898342E050E0A40EF4
:102FE000B51E610101E010E012C0F501C080D18082
:102FF000F6FC03C06FEF7FEF02C0692D70E042E086
:1030000050E0A40EB51EC6010E9454198C015FE762
:10301000F52214C0F501C080D180F6FC03C06FEF2B
:103020007FEF02C0692D70E042E050E0A40EB51EB3
:10303000C6010E9449198C0150E8F52AF3FE07C029
:103040001AC080E290E0B3010E945F19EA948E2DCD
:1030500090E008171907A8F30EC0F601F7FC859158
:10306000F7FE81916F0190E0B3010E945F19E110BA
:10307000EA94015010400115110579F7EAC0943621
:1030800011F0993669F5F7FE08C0F501208131810C
:103090004281538184E090E00AC0F50180819181F2
:1030A0009C01442737FD4095542F82E090E0A80E04
:1030B000B91E9FE6F92257FF09C0509540953095FB
:1030C00021953F4F4F4F5F4FE0E8FE2ACA01B901FB
:1030D000A1012AE030E00E948B19D82ED21840C0FE
:1030E000953729F41F2D1F7E2AE030E01DC01F2DCB
:1030F000197F9F3661F0903720F4983509F0ACC005
:103100000FC0903739F0983709F0A6C004C028E006
:1031100030E00AC0106114FD146020E130E004C00A
:1031200014FD166020E132E017FF08C0F501608150
:1031300071818281938144E050E008C0F501808173
:103140009181BC0180E090E042E050E0A40EB51E09
:10315000A1010E948B19D82ED2188FE7F82EF122E8
:10316000F6FE0BC05EEFF522D91438F4F4FE07C06A
:10317000F2FC05C08FEEF82202C01D2D01C0192DF2
:10318000F4FE0DC0FE01ED0DF11D8081803319F4B8
:1031900099EEF92208C01F5FF2FE05C003C08F2D13
:1031A000867809F01F5F0F2DF3FC14C0F0FE0FC0EE
:1031B0001E1510F09D2C0BC09D2C9E0C911A1E2DDF
:1031C00006C080E290E0B3010E945F191F5F1E15E8
:1031D000C0F304C01E1510F4E11A01C0EE2404FF70
:1031E0000FC080E390E0B3010E945F1902FF1DC091
:1031F00001FD03C088E790E00EC088E590E00BC0B9
:10320000802F867891F001FF02C08BE201C080E23E
:10321000F7FC8DE290E0B3010E945F1906C080E3E5
:1032200090E0B3010E945F199A94D914C0F3DA9424
:10323000F101ED0DF11D808190E0B3010E945F1955
:10324000DD20A9F706C080E290E0B3010E945F197B
:10325000EA94EE20C1F743CEF30166817781CB017A
:103260002B960FB6F894DEBF0FBECDBFCF91DF9186
:103270001F910F91FF90EF90DF90CF90BF90AF9094
:103280009F908F907F906F905F904F903F902F9086
:103290000895FC010590615070400110D8F78095A9
:1032A00090958E0F9F1F0895FC0161507040019012
:1032B0000110D8F7809590958E0F9F1F08950F935A
:1032C0001F93CF93DF938C01EB018B8181FF1BC098
:1032D00082FF0DC02E813F818C819D812817390787
:1032E00064F4E881F9810193F983E88306C0E885F5
:1032F000F985802F0995892B31F48E819F81019664
:103300009F838E8302C00FEF1FEFC801DF91CF9123
:103310001F910F910895FA01AA27283051F1203109
:1033200081F1E8946F936E7F6E5F7F4F8F4F9F4F59
:10333000AF4FB1E03ED0B4E03CD0670F781F891F9B
:103340009A1FA11D680F791F8A1F911DA11D6A0F69
:10335000711D811D911DA11D20D009F468943F911C
:103360002AE0269F11243019305D3193DEF6CF011B
:103370000895462F4770405D4193B3E00FD0C9F7E1
:10338000F6CF462F4F70405D4A3318F0495D31FD4E
:103390004052419302D0A9F7EACFB4E0A6959795A1
:1033A000879577956795BA95C9F700976105710577
:1033B00008959B01AC010A2E0694579547953795C1
:1033C0002795BA95C9F7620F731F841F951FA01D1B
:0633D0000895F894FFCF00
:1033D60025692E25690000526F7574657220656E29
:1033E60074657273206C6F6F7000407C484F535445
:1033F6007C25737C52656769737465724167656E77
:10340600747C5245475F4F4E544F4C4F47597C7220
:103416006F6F6D3153656E736F72576173706D6F39
:1034260074650A004C6120636F6E6578696F6E2063
:103436006861207369646F2072656769737472616D
:10344600646120636F7272656374616D656E746525
:10345600004C6120636F6E6578696F6E206E6F2019
:103466007075646F20736572207265676973747214
:1034760061646120636F7272656374616D656E74F9
:10348600650047657453656E736F7273526F6F6D27
:10349600310074656D70657261747572653A006CA1
:1034A600756D696E696F736974793A005049523A5D
:1034B60000407C73656375726974797C2573262573
:1034C600732625732625647C526F6F6D6F6E65506B
:1034D600726F746F636F6C7C53656E736F724F6E31
:1034E600746F6C6F67797C726F6F6D3153656E7335
:1034F6006F72576173706D6F74650A00616E6472E6
:103506006F6964617000416E64726F696441500056
:103516003135302E3231342E3130382E35380000E8
:10352600526573706F6E73652066726F6D20526F91
:103536007574657221200D0A00726F6F6D315365C7
:103546006E736F72576173706D6F74652323694D67
:10355600757365756D49232373656E736F7273009A
:10356600726F6F6D3153656E736F72576173706DE5
:103576006F746500533A2000523A20000A00004654
:10358600494E0A00574841543F0A002E00414F4B0E
:1035960000004552520000446973636F6E6E00006E
:1035A6004641494C454400006765742069700D002A
:1035B60049463D555000006C6F6F6B757020257342
:1035C600256300736C6565700D0070696E67202554
:1035D600732031302563007363616E202564256393
:1035E600007363616E20256420502563006F70654B
:1035F6006E0D002A4F50454E2A0000402F3A2000FB
:1036060073617665256300736574207520622025D5
:103616006425630074696D652563007365742069AC
:10362600206C202564256300657869742563007322
:1036360065742069206820257325630073657420EE
:1036460069207220256425630073657420662061F5
:103656002025732563007365742066207220256417
:103666002563007365742066206D2025642563003C
:103676007365742066207420256425630073657461
:1036860020642061202573256300736574206420FF
:103696006E202573256300736574206420622025DF
:1036A60073256300736574206F207020257325636E
:1036B6000073657420692070202564256300736596
:1036C600742062206120257325630073657420626F
:1036D60020692025642563007365742062207020AC
:1036E6002564256300736574206F20642025732587
:1036F6006300736574206920662025642563007362
:103706006574206920642020256425630073657430
:103716002069206120257325630073657420692064
:103726006E20257325630073657420692067202544
:1037360073256300736574207320702025642563E8
:1037460000736574207420612025732563007365FA
:1037560074207420702025642563007365742074BA
:103766002065202564256300736574206F206A2018
:1037760025642563006C6561766525630073657451
:1037860020772077202564256300736574207720D1
:103796007478202564256300736574207720722071
:1037A60025642563007365742077207320257325AF
:1037B60063007365742077206D202573256300737D
:1037C60065742077206C202564256300736574205A
:1037D6007720612025642563007365742077206354
:1037E6002025642563007265626F6F742563004E41
:1037F6006F206D61746368696E67204150730000C5
:10380600466F756E64203000007365742066206410
:10381600202F25732563006674702070202573257C
:10382600630074696D656F757400004F50454E00F6
:10383600002A434C4F532A00434C4F5300006A6FF3
:10384600696E20232025642563006A6F696E202532
:103856007325630024242400434D4400002A434D6D
:103866000A00636C6F7365256300736574206920B5
:103876006820302563007365742069207220383013
:103886002563007365742063207220257325630009
:10389600736574206F20662031256300736574207C
:1038A6006620752025732563007365742066207075
:1038B60020257325630073657420732077202564A3
:1038C60025630073657420732073202564256300C7
:1038D600666163746F7279205245534554256300BF
:1038E600736574207320702030783430303025634F
:1038F6000076657225630067657420752563006729
:1039060065742077256300676574207425630067F6
:1039160065742073256300676574206F25630067EF
:103926006574206D256300676574206925630067EB
:1039360065742066256300676574206425630067E7
:1039460065742063256300676574206225630067DC
:103956006574206125630073686F772074256300A2
:1039660073686F77207325630073686F77207225FD
:10397600630073686F77206E25630073686F772026
:10398600632563004368616E6E3A20004173736F6E
:10399600633A204F4B0A0041757468656E3A204FB2
:1039A6004B0A00444E5320736572766572203D20A3
:1039B600636F6E7461637465640A00444E532066D7
:1039C6006F756E64203D207265736F6C7665640A50
:1039D6000054435020737461747573203D2049640C
:1039E6006C650A0054435020737461747573203DEE
:1039F60020436F6E6E65637465640A0054435020FD
:103A0600737461747573203D204E4F49500A0054FB
:103A1600435020737461747573203D20436F6E6E3E
:103A2600656374696E670A00667470206720257383
:103A36002563002A434C4F532A00002578007365FE
:103A4600742077206B2025732563007365742077B7
:103A560020702025732563007365742077206A2003
:103A66002564256300736574206120622025642522
:103A760063007365742061207020256425630065EA
:103A86007869740D002A4F46460A002000921100FC
:063A9600004F036903016B
:00000001FF
